{
  "_format": "hh-sol-artifact-1",
  "contractName": "CurrencyManager",
  "sourceName": "contracts/CurrencyManager.sol",
  "abi": [
    {
      "anonymous": false,
      "inputs": [
        {
          "indexed": true,
          "internalType": "address",
          "name": "previousOwner",
          "type": "address"
        },
        {
          "indexed": true,
          "internalType": "address",
          "name": "newOwner",
          "type": "address"
        }
      ],
      "name": "OwnershipTransferred",
      "type": "event"
    },
    {
      "anonymous": false,
      "inputs": [
        {
          "components": [
            {
              "internalType": "bytes32",
              "name": "id",
              "type": "bytes32"
            },
            {
              "internalType": "uint256",
              "name": "decimals",
              "type": "uint256"
            },
            {
              "internalType": "bool",
              "name": "isAbstractCurrency",
              "type": "bool"
            },
            {
              "internalType": "address",
              "name": "ethereumAddress",
              "type": "address"
            }
          ],
          "indexed": false,
          "internalType": "struct ICurrencyManager.Currency",
          "name": "currency",
          "type": "tuple"
        }
      ],
      "name": "SubmittedCurrency",
      "type": "event"
    },
    {
      "anonymous": false,
      "inputs": [
        {
          "components": [
            {
              "internalType": "bytes32",
              "name": "id",
              "type": "bytes32"
            },
            {
              "internalType": "bytes32",
              "name": "quoteCurrencyId",
              "type": "bytes32"
            },
            {
              "internalType": "bytes32",
              "name": "baseCurrencyId",
              "type": "bytes32"
            }
          ],
          "indexed": false,
          "internalType": "struct ICurrencyManager.Pair",
          "name": "pair",
          "type": "tuple"
        }
      ],
      "name": "SubmittedPair",
      "type": "event"
    },
    {
      "anonymous": false,
      "inputs": [
        {
          "components": [
            {
              "internalType": "bytes32",
              "name": "id",
              "type": "bytes32"
            },
            {
              "internalType": "uint256",
              "name": "decimals",
              "type": "uint256"
            },
            {
              "internalType": "bool",
              "name": "isAbstractCurrency",
              "type": "bool"
            },
            {
              "internalType": "address",
              "name": "ethereumAddress",
              "type": "address"
            }
          ],
          "indexed": false,
          "internalType": "struct ICurrencyManager.Currency",
          "name": "currency",
          "type": "tuple"
        }
      ],
      "name": "UpdatedCurrency",
      "type": "event"
    },
    {
      "inputs": [
        {
          "components": [
            {
              "internalType": "bytes32",
              "name": "id",
              "type": "bytes32"
            },
            {
              "internalType": "uint256",
              "name": "decimals",
              "type": "uint256"
            },
            {
              "internalType": "bool",
              "name": "isAbstractCurrency",
              "type": "bool"
            },
            {
              "internalType": "address",
              "name": "ethereumAddress",
              "type": "address"
            }
          ],
          "internalType": "struct ICurrencyManager.Currency",
          "name": "currency",
          "type": "tuple"
        }
      ],
      "name": "addCurrency",
      "outputs": [],
      "stateMutability": "nonpayable",
      "type": "function"
    },
    {
      "inputs": [
        {
          "components": [
            {
              "internalType": "bytes32",
              "name": "id",
              "type": "bytes32"
            },
            {
              "internalType": "bytes32",
              "name": "quoteCurrencyId",
              "type": "bytes32"
            },
            {
              "internalType": "bytes32",
              "name": "baseCurrencyId",
              "type": "bytes32"
            }
          ],
          "internalType": "struct ICurrencyManager.Pair",
          "name": "pair",
          "type": "tuple"
        }
      ],
      "name": "addPair",
      "outputs": [],
      "stateMutability": "nonpayable",
      "type": "function"
    },
    {
      "inputs": [
        {
          "internalType": "bytes32",
          "name": "",
          "type": "bytes32"
        }
      ],
      "name": "currencies",
      "outputs": [
        {
          "internalType": "bytes32",
          "name": "id",
          "type": "bytes32"
        },
        {
          "internalType": "uint256",
          "name": "decimals",
          "type": "uint256"
        },
        {
          "internalType": "bool",
          "name": "isAbstractCurrency",
          "type": "bool"
        },
        {
          "internalType": "address",
          "name": "ethereumAddress",
          "type": "address"
        }
      ],
      "stateMutability": "view",
      "type": "function"
    },
    {
      "inputs": [],
      "name": "owner",
      "outputs": [
        {
          "internalType": "address",
          "name": "",
          "type": "address"
        }
      ],
      "stateMutability": "view",
      "type": "function"
    },
    {
      "inputs": [
        {
          "internalType": "bytes32",
          "name": "",
          "type": "bytes32"
        },
        {
          "internalType": "bytes32",
          "name": "",
          "type": "bytes32"
        }
      ],
      "name": "pairIdStorage",
      "outputs": [
        {
          "internalType": "bytes32",
          "name": "",
          "type": "bytes32"
        }
      ],
      "stateMutability": "view",
      "type": "function"
    },
    {
      "inputs": [
        {
          "internalType": "bytes32",
          "name": "",
          "type": "bytes32"
        }
      ],
      "name": "pairs",
      "outputs": [
        {
          "internalType": "bytes32",
          "name": "id",
          "type": "bytes32"
        },
        {
          "internalType": "bytes32",
          "name": "quoteCurrencyId",
          "type": "bytes32"
        },
        {
          "internalType": "bytes32",
          "name": "baseCurrencyId",
          "type": "bytes32"
        }
      ],
      "stateMutability": "view",
      "type": "function"
    },
    {
      "inputs": [],
      "name": "renounceOwnership",
      "outputs": [],
      "stateMutability": "nonpayable",
      "type": "function"
    },
    {
      "inputs": [
        {
          "internalType": "address",
          "name": "newOwner",
          "type": "address"
        }
      ],
      "name": "transferOwnership",
      "outputs": [],
      "stateMutability": "nonpayable",
      "type": "function"
    },
    {
      "inputs": [
        {
          "components": [
            {
              "internalType": "bytes32",
              "name": "id",
              "type": "bytes32"
            },
            {
              "internalType": "uint256",
              "name": "decimals",
              "type": "uint256"
            },
            {
              "internalType": "bool",
              "name": "isAbstractCurrency",
              "type": "bool"
            },
            {
              "internalType": "address",
              "name": "ethereumAddress",
              "type": "address"
            }
          ],
          "internalType": "struct ICurrencyManager.Currency",
          "name": "currency",
          "type": "tuple"
        }
      ],
      "name": "updateCurrency",
      "outputs": [],
      "stateMutability": "nonpayable",
      "type": "function"
    }
  ],
  "bytecode": "0x608060405234801561001057600080fd5b5061002d61002261003260201b60201c565b61003a60201b60201c565b6100fe565b600033905090565b60008060009054906101000a900473ffffffffffffffffffffffffffffffffffffffff169050816000806101000a81548173ffffffffffffffffffffffffffffffffffffffff021916908373ffffffffffffffffffffffffffffffffffffffff1602179055508173ffffffffffffffffffffffffffffffffffffffff168173ffffffffffffffffffffffffffffffffffffffff167f8be0079c531659141344cd1fd0a4f28419497f9722a3daafe3b4186f6b6457e060405160405180910390a35050565b61108f8061010d6000396000f3fe608060405234801561001057600080fd5b50600436106100935760003560e01c8063715018a611610066578063715018a6146101355780638da5cb5b1461013f578063a12158491461015d578063f2fde38b14610179578063fd837cf61461019557610093565b806301345c5414610098578063370adc95146100b457806360708d3e146100e7578063673e048114610103575b600080fd5b6100b260048036038101906100ad91906106f4565b6101c5565b005b6100ce60048036038101906100c99190610757565b610257565b6040516100de9493929190610808565b60405180910390f35b61010160048036038101906100fc919061086c565b6102b4565b005b61011d60048036038101906101189190610757565b6103e0565b60405161012c93929190610899565b60405180910390f35b61013d61040a565b005b61014761041e565b60405161015491906108d0565b60405180910390f35b610177600480360381019061017291906106f4565b610447565b005b610193600480360381019061018e9190610917565b6104d9565b005b6101af60048036038101906101aa9190610944565b61055c565b6040516101bc9190610984565b60405180910390f35b6101cd610581565b60008019166001600083600001358152602001908152602001600020600001541461022d576040517f08c379a0000000000000000000000000000000000000000000000000000000008152600401610224906109fc565b60405180910390fd5b80600160008360000135815260200190815260200160002081816102519190610d3f565b90505050565b60016020528060005260406000206000915090508060000154908060010154908060020160009054906101000a900460ff16908060020160019054906101000a900473ffffffffffffffffffffffffffffffffffffffff16905084565b6102bc610581565b60006002600083600001358152602001908152602001600020604051806060016040529081600082015481526020016001820154815260200160028201548152505090506000801b816000015114610349576040517f08c379a000000000000000000000000000000000000000000000000000000000815260040161034090610dbf565b60405180910390fd5b816002600084600001358152602001908152602001600020818161036d9190610e46565b90505081600001356003600084602001358152602001908152602001600020600084604001358152602001908152602001600020819055507f2470a711cdf3507c073c78e8f88c84f26e4f79177813a8c35f9fcca60e0685fb826040516103d49190610ed4565b60405180910390a15050565b60026020528060005260406000206000915090508060000154908060010154908060020154905083565b610412610581565b61041c60006105ff565b565b60008060009054906101000a900473ffffffffffffffffffffffffffffffffffffffff16905090565b61044f610581565b6000801916600160008360000135815260200190815260200160002060000154036104af576040517f08c379a00000000000000000000000000000000000000000000000000000000081526004016104a690610f3b565b60405180910390fd5b80600160008360000135815260200190815260200160002081816104d39190610d3f565b90505050565b6104e1610581565b600073ffffffffffffffffffffffffffffffffffffffff168173ffffffffffffffffffffffffffffffffffffffff1603610550576040517f08c379a000000000000000000000000000000000000000000000000000000000815260040161054790610fcd565b60405180910390fd5b610559816105ff565b50565b6003602052816000526040600020602052806000526040600020600091509150505481565b6105896106c3565b73ffffffffffffffffffffffffffffffffffffffff166105a761041e565b73ffffffffffffffffffffffffffffffffffffffff16146105fd576040517f08c379a00000000000000000000000000000000000000000000000000000000081526004016105f490611039565b60405180910390fd5b565b60008060009054906101000a900473ffffffffffffffffffffffffffffffffffffffff169050816000806101000a81548173ffffffffffffffffffffffffffffffffffffffff021916908373ffffffffffffffffffffffffffffffffffffffff1602179055508173ffffffffffffffffffffffffffffffffffffffff168173ffffffffffffffffffffffffffffffffffffffff167f8be0079c531659141344cd1fd0a4f28419497f9722a3daafe3b4186f6b6457e060405160405180910390a35050565b600033905090565b600080fd5b600080fd5b6000608082840312156106eb576106ea6106d0565b5b81905092915050565b60006080828403121561070a576107096106cb565b5b6000610718848285016106d5565b91505092915050565b6000819050919050565b61073481610721565b811461073f57600080fd5b50565b6000813590506107518161072b565b92915050565b60006020828403121561076d5761076c6106cb565b5b600061077b84828501610742565b91505092915050565b61078d81610721565b82525050565b6000819050919050565b6107a681610793565b82525050565b60008115159050919050565b6107c1816107ac565b82525050565b600073ffffffffffffffffffffffffffffffffffffffff82169050919050565b60006107f2826107c7565b9050919050565b610802816107e7565b82525050565b600060808201905061081d6000830187610784565b61082a602083018661079d565b61083760408301856107b8565b61084460608301846107f9565b95945050505050565b600060608284031215610863576108626106d0565b5b81905092915050565b600060608284031215610882576108816106cb565b5b60006108908482850161084d565b91505092915050565b60006060820190506108ae6000830186610784565b6108bb6020830185610784565b6108c86040830184610784565b949350505050565b60006020820190506108e560008301846107f9565b92915050565b6108f4816107e7565b81146108ff57600080fd5b50565b600081359050610911816108eb565b92915050565b60006020828403121561092d5761092c6106cb565b5b600061093b84828501610902565b91505092915050565b6000806040838503121561095b5761095a6106cb565b5b600061096985828601610742565b925050602061097a85828601610742565b9150509250929050565b60006020820190506109996000830184610784565b92915050565b600082825260208201905092915050565b7f43757272656e637920616c726561647920736574000000000000000000000000600082015250565b60006109e660148361099f565b91506109f1826109b0565b602082019050919050565b60006020820190508181036000830152610a15816109d9565b9050919050565b60008135610a298161072b565b80915050919050565b60008160001b9050919050565b60007fffffffffffffffffffffffffffffffffffffffffffffffffffffffffffffffff610a6b84610a32565b9350801983169250808416831791505092915050565b6000610a8c82610721565b9050919050565b60008160001c9050919050565b6000610aab82610a93565b9050919050565b610abb82610a81565b610ace610ac782610aa0565b8354610a3f565b8255505050565b610ade81610793565b8114610ae957600080fd5b50565b60008135610af981610ad5565b80915050919050565b6000819050919050565b6000610b27610b22610b1d84610793565b610b02565b610793565b9050919050565b6000819050919050565b610b4182610b0c565b610b54610b4d82610b2e565b8354610a3f565b8255505050565b610b64816107ac565b8114610b6f57600080fd5b50565b60008135610b7f81610b5b565b80915050919050565b600060ff610b9584610a32565b9350801983169250808416831791505092915050565b6000610bb6826107ac565b9050919050565b6000819050919050565b610bd082610bab565b610be3610bdc82610bbd565b8354610b88565b8255505050565b60008135610bf7816108eb565b80915050919050565b60008160081b9050919050565b600074ffffffffffffffffffffffffffffffffffffffff00610c2e84610c00565b9350801983169250808416831791505092915050565b6000610c5f610c5a610c55846107c7565b610b02565b6107c7565b9050919050565b6000610c7182610c44565b9050919050565b6000610c8382610c66565b9050919050565b6000819050919050565b610c9d82610c78565b610cb0610ca982610c8a565b8354610c0d565b8255505050565b600081016000830180610cc981610a1c565b9050610cd58184610ab2565b505050600181016020830180610cea81610aec565b9050610cf68184610b38565b505050600281016040830180610d0b81610b72565b9050610d178184610bc7565b505050600281016060830180610d2c81610bea565b9050610d388184610c94565b5050505050565b610d498282610cb7565b5050565b7f4f7261636c653a205061697220776974682074686973206b657920616c72656160008201527f6479207265676973746572656400000000000000000000000000000000000000602082015250565b6000610da9602d8361099f565b9150610db482610d4d565b604082019050919050565b60006020820190508181036000830152610dd881610d9c565b9050919050565b600081016000830180610df181610a1c565b9050610dfd8184610ab2565b505050600181016020830180610e1281610a1c565b9050610e1e8184610ab2565b505050600281016040830180610e3381610a1c565b9050610e3f8184610ab2565b5050505050565b610e508282610ddf565b5050565b6000610e636020840184610742565b905092915050565b610e7481610721565b82525050565b60608201610e8b6000830183610e54565b610e986000850182610e6b565b50610ea66020830183610e54565b610eb36020850182610e6b565b50610ec16040830183610e54565b610ece6040850182610e6b565b50505050565b6000606082019050610ee96000830184610e7a565b92915050565b7f43757272656e6379206e6f742073657400000000000000000000000000000000600082015250565b6000610f2560108361099f565b9150610f3082610eef565b602082019050919050565b60006020820190508181036000830152610f5481610f18565b9050919050565b7f4f776e61626c653a206e6577206f776e657220697320746865207a65726f206160008201527f6464726573730000000000000000000000000000000000000000000000000000602082015250565b6000610fb760268361099f565b9150610fc282610f5b565b604082019050919050565b60006020820190508181036000830152610fe681610faa565b9050919050565b7f4f776e61626c653a2063616c6c6572206973206e6f7420746865206f776e6572600082015250565b600061102360208361099f565b915061102e82610fed565b602082019050919050565b6000602082019050818103600083015261105281611016565b905091905056fea26469706673582212205c06cc85507ebb2a8401a4fd6a39068642ce4bd005c2f7b1a51fbdb3ed52228e64736f6c63430008110033",
  "linkReferences": {},
  "deployedLinkReferences": {}
}