{
  "_format": "hh-sol-artifact-1",
  "contractName": "Oracle",
  "sourceName": "contracts/Oracle.sol",
  "abi": [
    {
      "inputs": [],
      "stateMutability": "nonpayable",
      "type": "constructor"
    },
    {
      "anonymous": false,
      "inputs": [
        {
          "components": [
            {
              "internalType": "uint64",
              "name": "timestamp",
              "type": "uint64"
            },
            {
              "internalType": "uint128",
              "name": "value",
              "type": "uint128"
            },
            {
              "internalType": "enum IOracle.AggregationMode",
              "name": "aggregationMode",
              "type": "uint8"
            },
            {
              "internalType": "uint8",
              "name": "numSourcesAggregated",
              "type": "uint8"
            }
          ],
          "indexed": false,
          "internalType": "struct IOracle.Checkpoint",
          "name": "cp",
          "type": "tuple"
        }
      ],
      "name": "CheckpointSpotEntry",
      "type": "event"
    },
    {
      "anonymous": false,
      "inputs": [
        {
          "indexed": false,
          "internalType": "uint8",
          "name": "version",
          "type": "uint8"
        }
      ],
      "name": "Initialized",
      "type": "event"
    },
    {
      "anonymous": false,
      "inputs": [
        {
          "indexed": true,
          "internalType": "address",
          "name": "previousOwner",
          "type": "address"
        },
        {
          "indexed": true,
          "internalType": "address",
          "name": "newOwner",
          "type": "address"
        }
      ],
      "name": "OwnershipTransferred",
      "type": "event"
    },
    {
      "anonymous": false,
      "inputs": [
        {
          "components": [
            {
              "internalType": "bytes32",
              "name": "id",
              "type": "bytes32"
            },
            {
              "internalType": "uint256",
              "name": "decimals",
              "type": "uint256"
            },
            {
              "internalType": "bool",
              "name": "isAbstractCurrency",
              "type": "bool"
            },
            {
              "internalType": "address",
              "name": "ethereumAddress",
              "type": "address"
            }
          ],
          "indexed": false,
          "internalType": "struct ICurrencyManager.Currency",
          "name": "currency",
          "type": "tuple"
        }
      ],
      "name": "SubmittedCurrency",
      "type": "event"
    },
    {
      "anonymous": false,
      "inputs": [
        {
          "components": [
            {
              "internalType": "bytes32",
              "name": "id",
              "type": "bytes32"
            },
            {
              "internalType": "bytes32",
              "name": "quoteCurrencyId",
              "type": "bytes32"
            },
            {
              "internalType": "bytes32",
              "name": "baseCurrencyId",
              "type": "bytes32"
            }
          ],
          "indexed": false,
          "internalType": "struct ICurrencyManager.Pair",
          "name": "pair",
          "type": "tuple"
        }
      ],
      "name": "SubmittedPair",
      "type": "event"
    },
    {
      "anonymous": false,
      "inputs": [
        {
          "components": [
            {
              "components": [
                {
                  "internalType": "uint256",
                  "name": "timestamp",
                  "type": "uint256"
                },
                {
                  "internalType": "bytes32",
                  "name": "source",
                  "type": "bytes32"
                },
                {
                  "internalType": "bytes32",
                  "name": "publisher",
                  "type": "bytes32"
                }
              ],
              "internalType": "struct IOracle.BaseEntry",
              "name": "base",
              "type": "tuple"
            },
            {
              "internalType": "bytes32",
              "name": "pairId",
              "type": "bytes32"
            },
            {
              "internalType": "uint256",
              "name": "price",
              "type": "uint256"
            },
            {
              "internalType": "uint256",
              "name": "volume",
              "type": "uint256"
            }
          ],
          "indexed": false,
          "internalType": "struct IOracle.SpotEntry",
          "name": "newEntry",
          "type": "tuple"
        }
      ],
      "name": "SubmittedSpotEntry",
      "type": "event"
    },
    {
      "anonymous": false,
      "inputs": [
        {
          "components": [
            {
              "internalType": "bytes32",
              "name": "id",
              "type": "bytes32"
            },
            {
              "internalType": "uint256",
              "name": "decimals",
              "type": "uint256"
            },
            {
              "internalType": "bool",
              "name": "isAbstractCurrency",
              "type": "bool"
            },
            {
              "internalType": "address",
              "name": "ethereumAddress",
              "type": "address"
            }
          ],
          "indexed": false,
          "internalType": "struct ICurrencyManager.Currency",
          "name": "currency",
          "type": "tuple"
        }
      ],
      "name": "UpdatedCurrency",
      "type": "event"
    },
    {
      "anonymous": false,
      "inputs": [
        {
          "indexed": false,
          "internalType": "address",
          "name": "oldPublisherRegistryAddress",
          "type": "address"
        },
        {
          "indexed": false,
          "internalType": "address",
          "name": "newPublisherRegistryAddress",
          "type": "address"
        }
      ],
      "name": "UpdatedPublisherRegistryAddress",
      "type": "event"
    },
    {
      "inputs": [
        {
          "components": [
            {
              "internalType": "bytes32",
              "name": "id",
              "type": "bytes32"
            },
            {
              "internalType": "uint256",
              "name": "decimals",
              "type": "uint256"
            },
            {
              "internalType": "bool",
              "name": "isAbstractCurrency",
              "type": "bool"
            },
            {
              "internalType": "address",
              "name": "ethereumAddress",
              "type": "address"
            }
          ],
          "internalType": "struct ICurrencyManager.Currency",
          "name": "currency",
          "type": "tuple"
        }
      ],
      "name": "addCurrency",
      "outputs": [],
      "stateMutability": "nonpayable",
      "type": "function"
    },
    {
      "inputs": [
        {
          "components": [
            {
              "internalType": "bytes32",
              "name": "id",
              "type": "bytes32"
            },
            {
              "internalType": "bytes32",
              "name": "quoteCurrencyId",
              "type": "bytes32"
            },
            {
              "internalType": "bytes32",
              "name": "baseCurrencyId",
              "type": "bytes32"
            }
          ],
          "internalType": "struct ICurrencyManager.Pair",
          "name": "pair",
          "type": "tuple"
        }
      ],
      "name": "addPair",
      "outputs": [],
      "stateMutability": "nonpayable",
      "type": "function"
    },
    {
      "inputs": [
        {
          "internalType": "bytes32",
          "name": "",
          "type": "bytes32"
        }
      ],
      "name": "checkpointIndex",
      "outputs": [
        {
          "internalType": "uint256",
          "name": "",
          "type": "uint256"
        }
      ],
      "stateMutability": "view",
      "type": "function"
    },
    {
      "inputs": [
        {
          "internalType": "bytes32",
          "name": "",
          "type": "bytes32"
        },
        {
          "internalType": "uint256",
          "name": "",
          "type": "uint256"
        }
      ],
      "name": "checkpoints",
      "outputs": [
        {
          "internalType": "uint64",
          "name": "timestamp",
          "type": "uint64"
        },
        {
          "internalType": "uint128",
          "name": "value",
          "type": "uint128"
        },
        {
          "internalType": "enum IOracle.AggregationMode",
          "name": "aggregationMode",
          "type": "uint8"
        },
        {
          "internalType": "uint8",
          "name": "numSourcesAggregated",
          "type": "uint8"
        }
      ],
      "stateMutability": "view",
      "type": "function"
    },
    {
      "inputs": [
        {
          "internalType": "bytes32",
          "name": "",
          "type": "bytes32"
        }
      ],
      "name": "currencies",
      "outputs": [
        {
          "internalType": "bytes32",
          "name": "id",
          "type": "bytes32"
        },
        {
          "internalType": "uint256",
          "name": "decimals",
          "type": "uint256"
        },
        {
          "internalType": "bool",
          "name": "isAbstractCurrency",
          "type": "bool"
        },
        {
          "internalType": "address",
          "name": "ethereumAddress",
          "type": "address"
        }
      ],
      "stateMutability": "view",
      "type": "function"
    },
    {
      "inputs": [
        {
          "internalType": "bytes32",
          "name": "pairId",
          "type": "bytes32"
        },
        {
          "internalType": "enum IOracle.AggregationMode",
          "name": "",
          "type": "uint8"
        },
        {
          "internalType": "bytes32[]",
          "name": "sources",
          "type": "bytes32[]"
        }
      ],
      "name": "getSpot",
      "outputs": [
        {
          "internalType": "uint256",
          "name": "price",
          "type": "uint256"
        },
        {
          "internalType": "uint256",
          "name": "decimals",
          "type": "uint256"
        },
        {
          "internalType": "uint256",
          "name": "lastUpdatedTimestamp",
          "type": "uint256"
        },
        {
          "internalType": "uint256",
          "name": "numSourcesAggregated",
          "type": "uint256"
        }
      ],
      "stateMutability": "view",
      "type": "function"
    },
    {
      "inputs": [
        {
          "internalType": "bytes32",
          "name": "pairId",
          "type": "bytes32"
        },
        {
          "internalType": "bytes32[]",
          "name": "sources",
          "type": "bytes32[]"
        }
      ],
      "name": "getSpotEntries",
      "outputs": [
        {
          "components": [
            {
              "internalType": "uint128",
              "name": "timestamp",
              "type": "uint128"
            },
            {
              "internalType": "bytes16",
              "name": "pairId",
              "type": "bytes16"
            },
            {
              "internalType": "uint128",
              "name": "price",
              "type": "uint128"
            },
            {
              "internalType": "uint128",
              "name": "volume",
              "type": "uint128"
            }
          ],
          "internalType": "struct IOracle.SpotEntryStorage[]",
          "name": "entries",
          "type": "tuple[]"
        },
        {
          "internalType": "uint256",
          "name": "lastUpdatedTimestamp",
          "type": "uint256"
        }
      ],
      "stateMutability": "view",
      "type": "function"
    },
    {
      "inputs": [
        {
          "internalType": "address",
          "name": "_publisherRegistry",
          "type": "address"
        },
        {
          "components": [
            {
              "internalType": "bytes32",
              "name": "id",
              "type": "bytes32"
            },
            {
              "internalType": "uint256",
              "name": "decimals",
              "type": "uint256"
            },
            {
              "internalType": "bool",
              "name": "isAbstractCurrency",
              "type": "bool"
            },
            {
              "internalType": "address",
              "name": "ethereumAddress",
              "type": "address"
            }
          ],
          "internalType": "struct ICurrencyManager.Currency[]",
          "name": "_currencies",
          "type": "tuple[]"
        },
        {
          "components": [
            {
              "internalType": "bytes32",
              "name": "id",
              "type": "bytes32"
            },
            {
              "internalType": "bytes32",
              "name": "quoteCurrencyId",
              "type": "bytes32"
            },
            {
              "internalType": "bytes32",
              "name": "baseCurrencyId",
              "type": "bytes32"
            }
          ],
          "internalType": "struct ICurrencyManager.Pair[]",
          "name": "_pairs",
          "type": "tuple[]"
        }
      ],
      "name": "initialize",
      "outputs": [],
      "stateMutability": "nonpayable",
      "type": "function"
    },
    {
      "inputs": [
        {
          "internalType": "bytes32",
          "name": "",
          "type": "bytes32"
        },
        {
          "internalType": "uint256",
          "name": "",
          "type": "uint256"
        }
      ],
      "name": "oracleSourcesStorage",
      "outputs": [
        {
          "internalType": "bytes32",
          "name": "",
          "type": "bytes32"
        }
      ],
      "stateMutability": "view",
      "type": "function"
    },
    {
      "inputs": [],
      "name": "owner",
      "outputs": [
        {
          "internalType": "address",
          "name": "",
          "type": "address"
        }
      ],
      "stateMutability": "view",
      "type": "function"
    },
    {
      "inputs": [
        {
          "internalType": "bytes32",
          "name": "",
          "type": "bytes32"
        },
        {
          "internalType": "bytes32",
          "name": "",
          "type": "bytes32"
        }
      ],
      "name": "pairIdStorage",
      "outputs": [
        {
          "internalType": "bytes32",
          "name": "",
          "type": "bytes32"
        }
      ],
      "stateMutability": "view",
      "type": "function"
    },
    {
      "inputs": [
        {
          "internalType": "bytes32",
          "name": "",
          "type": "bytes32"
        }
      ],
      "name": "pairs",
      "outputs": [
        {
          "internalType": "bytes32",
          "name": "id",
          "type": "bytes32"
        },
        {
          "internalType": "bytes32",
          "name": "quoteCurrencyId",
          "type": "bytes32"
        },
        {
          "internalType": "bytes32",
          "name": "baseCurrencyId",
          "type": "bytes32"
        }
      ],
      "stateMutability": "view",
      "type": "function"
    },
    {
      "inputs": [
        {
          "components": [
            {
              "components": [
                {
                  "internalType": "uint256",
                  "name": "timestamp",
                  "type": "uint256"
                },
                {
                  "internalType": "bytes32",
                  "name": "source",
                  "type": "bytes32"
                },
                {
                  "internalType": "bytes32",
                  "name": "publisher",
                  "type": "bytes32"
                }
              ],
              "internalType": "struct IOracle.BaseEntry",
              "name": "base",
              "type": "tuple"
            },
            {
              "internalType": "bytes32",
              "name": "pairId",
              "type": "bytes32"
            },
            {
              "internalType": "uint256",
              "name": "price",
              "type": "uint256"
            },
            {
              "internalType": "uint256",
              "name": "volume",
              "type": "uint256"
            }
          ],
          "internalType": "struct IOracle.SpotEntry[]",
          "name": "spotEntries",
          "type": "tuple[]"
        }
      ],
      "name": "publishSpotEntries",
      "outputs": [],
      "stateMutability": "nonpayable",
      "type": "function"
    },
    {
      "inputs": [
        {
          "components": [
            {
              "components": [
                {
                  "internalType": "uint256",
                  "name": "timestamp",
                  "type": "uint256"
                },
                {
                  "internalType": "bytes32",
                  "name": "source",
                  "type": "bytes32"
                },
                {
                  "internalType": "bytes32",
                  "name": "publisher",
                  "type": "bytes32"
                }
              ],
              "internalType": "struct IOracle.BaseEntry",
              "name": "base",
              "type": "tuple"
            },
            {
              "internalType": "bytes32",
              "name": "pairId",
              "type": "bytes32"
            },
            {
              "internalType": "uint256",
              "name": "price",
              "type": "uint256"
            },
            {
              "internalType": "uint256",
              "name": "volume",
              "type": "uint256"
            }
          ],
          "internalType": "struct IOracle.SpotEntry",
          "name": "spotEntry",
          "type": "tuple"
        }
      ],
      "name": "publishSpotEntry",
      "outputs": [],
      "stateMutability": "nonpayable",
      "type": "function"
    },
    {
      "inputs": [],
      "name": "publisherRegistry",
      "outputs": [
        {
          "internalType": "contract IPublisherRegistry",
          "name": "",
          "type": "address"
        }
      ],
      "stateMutability": "view",
      "type": "function"
    },
    {
      "inputs": [],
      "name": "renounceOwnership",
      "outputs": [],
      "stateMutability": "nonpayable",
      "type": "function"
    },
    {
      "inputs": [
        {
          "internalType": "bytes32",
          "name": "pairId",
          "type": "bytes32"
        },
        {
          "internalType": "enum IOracle.AggregationMode",
          "name": "aggregationMode",
          "type": "uint8"
        }
      ],
      "name": "setCheckpoint",
      "outputs": [],
      "stateMutability": "nonpayable",
      "type": "function"
    },
    {
      "inputs": [
        {
          "internalType": "bytes32[]",
          "name": "pairIds",
          "type": "bytes32[]"
        },
        {
          "internalType": "enum IOracle.AggregationMode",
          "name": "aggregationMode",
          "type": "uint8"
        }
      ],
      "name": "setCheckpoints",
      "outputs": [],
      "stateMutability": "nonpayable",
      "type": "function"
    },
    {
      "inputs": [
        {
          "internalType": "uint256",
          "name": "threshold",
          "type": "uint256"
        }
      ],
      "name": "setSourcesThreshold",
      "outputs": [],
      "stateMutability": "nonpayable",
      "type": "function"
    },
    {
      "inputs": [
        {
          "internalType": "bytes32",
          "name": "",
          "type": "bytes32"
        },
        {
          "internalType": "bytes32",
          "name": "",
          "type": "bytes32"
        }
      ],
      "name": "spotEntryStorage",
      "outputs": [
        {
          "internalType": "uint128",
          "name": "timestamp",
          "type": "uint128"
        },
        {
          "internalType": "bytes16",
          "name": "pairId",
          "type": "bytes16"
        },
        {
          "internalType": "uint128",
          "name": "price",
          "type": "uint128"
        },
        {
          "internalType": "uint128",
          "name": "volume",
          "type": "uint128"
        }
      ],
      "stateMutability": "view",
      "type": "function"
    },
    {
      "inputs": [
        {
          "internalType": "address",
          "name": "newOwner",
          "type": "address"
        }
      ],
      "name": "transferOwnership",
      "outputs": [],
      "stateMutability": "nonpayable",
      "type": "function"
    },
    {
      "inputs": [
        {
          "components": [
            {
              "internalType": "bytes32",
              "name": "id",
              "type": "bytes32"
            },
            {
              "internalType": "uint256",
              "name": "decimals",
              "type": "uint256"
            },
            {
              "internalType": "bool",
              "name": "isAbstractCurrency",
              "type": "bool"
            },
            {
              "internalType": "address",
              "name": "ethereumAddress",
              "type": "address"
            }
          ],
          "internalType": "struct ICurrencyManager.Currency",
          "name": "currency",
          "type": "tuple"
        }
      ],
      "name": "updateCurrency",
      "outputs": [],
      "stateMutability": "nonpayable",
      "type": "function"
    },
    {
      "inputs": [
        {
          "internalType": "contract IPublisherRegistry",
          "name": "newPublisherRegistryAddress",
          "type": "address"
        }
      ],
      "name": "updatePublisherRegistryAddress",
      "outputs": [],
      "stateMutability": "nonpayable",
      "type": "function"
    }
  ],
  "bytecode": "0x608060405260016009553480156200001657600080fd5b50620000376200002b6200004d60201b60201c565b6200005560201b60201c565b620000476200011a60201b60201c565b620002c5565b600033905090565b60008060029054906101000a900473ffffffffffffffffffffffffffffffffffffffff16905081600060026101000a81548173ffffffffffffffffffffffffffffffffffffffff021916908373ffffffffffffffffffffffffffffffffffffffff1602179055508173ffffffffffffffffffffffffffffffffffffffff168173ffffffffffffffffffffffffffffffffffffffff167f8be0079c531659141344cd1fd0a4f28419497f9722a3daafe3b4186f6b6457e060405160405180910390a35050565b600060019054906101000a900460ff16156200016d576040517f08c379a0000000000000000000000000000000000000000000000000000000008152600401620001649062000268565b60405180910390fd5b60ff801660008054906101000a900460ff1660ff161015620001df5760ff6000806101000a81548160ff021916908360ff1602179055507f7f26b83ff96e1f2b6a682f133852f6798a09c465da95921460cefb384740249860ff604051620001d69190620002a8565b60405180910390a15b565b600082825260208201905092915050565b7f496e697469616c697a61626c653a20636f6e747261637420697320696e69746960008201527f616c697a696e6700000000000000000000000000000000000000000000000000602082015250565b600062000250602783620001e1565b91506200025d82620001f2565b604082019050919050565b60006020820190508181036000830152620002838162000241565b9050919050565b600060ff82169050919050565b620002a2816200028a565b82525050565b6000602082019050620002bf600083018462000297565b92915050565b61413180620002d56000396000f3fe608060405234801561001057600080fd5b506004361061014d5760003560e01c80638da5cb5b116100c3578063b311dcaa1161007c578063b311dcaa146103a6578063ce553ede146103d7578063db73656c146103f3578063f1298d131461040f578063f2fde38b1461043f578063fd837cf61461045b5761014d565b80638da5cb5b146102ce578063975c35dc146102ec5780639af4713e1461031f5780639d26d3741461033b578063a007a9481461036e578063a12158491461038a5761014d565b8063370adc9511610115578063370adc95146101f75780633f0b12fc1461022a57806360708d3e14610246578063673e04811461026257806370d4c74a14610294578063715018a6146102c45761014d565b806301345c5414610152578063149f95261461016e57806317d2b89c1461018a5780632894ceda146101a657806331e17d75146101c4575b600080fd5b61016c600480360381019061016791906122b4565b61048b565b005b61018860048036038101906101839190612495565b61051d565b005b6101a4600480360381019061019f9190612527565b610565565b005b6101ae610577565b6040516101bb91906125d3565b60405180910390f35b6101de60048036038101906101d991906125ee565b61059d565b6040516101ee9493929190612694565b60405180910390f35b610211600480360381019061020c91906126d9565b61063b565b6040516102219493929190612760565b60405180910390f35b610244600480360381019061023f9190612800565b610698565b005b610260600480360381019061025b919061286c565b6106df565b005b61027c600480360381019061027791906126d9565b61080b565b60405161028b93929190612899565b60405180910390f35b6102ae60048036038101906102a991906126d9565b610835565b6040516102bb91906128d0565b60405180910390f35b6102cc61084d565b005b6102d6610861565b6040516102e391906128eb565b60405180910390f35b61030660048036038101906103019190612906565b61088a565b60405161031694939291906129fc565b60405180910390f35b61033960048036038101906103349190612d00565b61091d565b005b61035560048036038101906103509190612d8b565b610c0e565b6040516103659493929190612dfa565b60405180910390f35b61038860048036038101906103839190612e5e565b610c78565b005b6103a4600480360381019061039f91906122b4565b610c84565b005b6103c060048036038101906103bb9190612e8b565b610d16565b6040516103ce929190613009565b60405180910390f35b6103f160048036038101906103ec9190613039565b610d46565b005b61040d600480360381019061040891906130b7565b610d54565b005b61042960048036038101906104249190612906565b610da0565b60405161043691906130e4565b60405180910390f35b610459600480360381019061045491906130ff565b610dd1565b005b610475600480360381019061047091906125ee565b610e54565b60405161048291906130e4565b60405180910390f35b610493610e79565b6000801916600160008360000135815260200190815260200160002060000154146104f3576040517f08c379a00000000000000000000000000000000000000000000000000000000081526004016104ea90613189565b60405180910390fd5b80600160008360000135815260200190815260200160002081816105179190613460565b90505050565b60005b82518110156105605761054d83828151811061053f5761053e61346e565b5b602002602001015183610ef7565b8080610558906134cc565b915050610520565b505050565b61056d610e79565b8060098190555050565b600460009054906101000a900473ffffffffffffffffffffffffffffffffffffffff1681565b6006602052816000526040600020602052806000526040600020600091509150508060000160009054906101000a90046fffffffffffffffffffffffffffffffff16908060000160109054906101000a900460801b908060010160009054906101000a90046fffffffffffffffffffffffffffffffff16908060010160109054906101000a90046fffffffffffffffffffffffffffffffff16905084565b60016020528060005260406000206000915090508060000154908060010154908060020160009054906101000a900460ff16908060020160019054906101000a900473ffffffffffffffffffffffffffffffffffffffff16905084565b60005b828290508110156106da576106c78383838181106106bc576106bb61346e565b5b905060c00201611311565b80806106d2906134cc565b91505061069b565b505050565b6106e7610e79565b60006002600083600001358152602001908152602001600020604051806060016040529081600082015481526020016001820154815260200160028201548152505090506000801b816000015114610774576040517f08c379a000000000000000000000000000000000000000000000000000000000815260040161076b90613586565b60405180910390fd5b8160026000846000013581526020019081526020016000208181610798919061360d565b90505081600001356003600084602001358152602001908152602001600020600084604001358152602001908152602001600020819055507f2470a711cdf3507c073c78e8f88c84f26e4f79177813a8c35f9fcca60e0685fb826040516107ff919061369b565b60405180910390a15050565b60026020528060005260406000206000915090508060000154908060010154908060020154905083565b60086020528060005260406000206000915090505481565b610855610e79565b61085f6000611668565b565b60008060029054906101000a900473ffffffffffffffffffffffffffffffffffffffff16905090565b600760205281600052604060002081815481106108a657600080fd5b90600052602060002001600091509150508060000160009054906101000a900467ffffffffffffffff16908060000160089054906101000a90046fffffffffffffffffffffffffffffffff16908060000160189054906101000a900460ff16908060000160199054906101000a900460ff16905084565b60008060019054906101000a900460ff1615905080801561094e5750600160008054906101000a900460ff1660ff16105b8061097b575061095d3061172d565b15801561097a5750600160008054906101000a900460ff1660ff16145b5b6109ba576040517f08c379a00000000000000000000000000000000000000000000000000000000081526004016109b190613728565b60405180910390fd5b60016000806101000a81548160ff021916908360ff16021790555080156109f7576001600060016101000a81548160ff0219169083151502179055505b83600460006101000a81548173ffffffffffffffffffffffffffffffffffffffff021916908373ffffffffffffffffffffffffffffffffffffffff16021790555060005b8351811015610b2157838181518110610a5757610a5661346e565b5b602002602001015160016000868481518110610a7657610a7561346e565b5b6020026020010151600001518152602001908152602001600020600082015181600001556020820151816001015560408201518160020160006101000a81548160ff02191690831515021790555060608201518160020160016101000a81548173ffffffffffffffffffffffffffffffffffffffff021916908373ffffffffffffffffffffffffffffffffffffffff1602179055509050508080610b19906134cc565b915050610a3b565b5060005b8251811015610bae57828181518110610b4157610b4061346e565b5b602002602001015160026000858481518110610b6057610b5f61346e565b5b60200260200101516000015181526020019081526020016000206000820151816000015560208201518160010155604082015181600201559050508080610ba6906134cc565b915050610b25565b508015610c085760008060016101000a81548160ff0219169083151502179055507f7f26b83ff96e1f2b6a682f133852f6798a09c465da95921460cefb38474024986001604051610bff9190613783565b60405180910390a15b50505050565b600080600080600080610c218988610d16565b915091506000825103610c435760008060008095509550955095505050610c6f565b6000610c4e83611750565b90506000610c5b8b61186b565b905081818486519750975097509750505050505b93509350935093565b610c8181611311565b50565b610c8c610e79565b600080191660016000836000013581526020019081526020016000206000015403610cec576040517f08c379a0000000000000000000000000000000000000000000000000000000008152600401610ce3906137ea565b60405180910390fd5b8060016000836000013581526020019081526020016000208181610d109190613460565b90505050565b60606000806000610d2786866118a6565b91509150610d358282611ad7565b935083819350935050509250929050565b610d508282610ef7565b5050565b610d5c610e79565b80600460006101000a81548173ffffffffffffffffffffffffffffffffffffffff021916908373ffffffffffffffffffffffffffffffffffffffff16021790555050565b60056020528160005260406000208181548110610dbc57600080fd5b90600052602060002001600091509150505481565b610dd9610e79565b600073ffffffffffffffffffffffffffffffffffffffff168173ffffffffffffffffffffffffffffffffffffffff1603610e48576040517f08c379a0000000000000000000000000000000000000000000000000000000008152600401610e3f9061387c565b60405180910390fd5b610e5181611668565b50565b6003602052816000526040600020602052806000526040600020600091509150505481565b610e81611c5c565b73ffffffffffffffffffffffffffffffffffffffff16610e9f610861565b73ffffffffffffffffffffffffffffffffffffffff1614610ef5576040517f08c379a0000000000000000000000000000000000000000000000000000000008152600401610eec906138e8565b60405180910390fd5b565b600060056000848152602001908152602001600020805480602002602001604051908101604052809291908181526020018280548015610f5657602002820191906000526020600020905b815481526020019060010190808311610f42575b505050505090506000806000610f6d868686610c0e565b93509350509250806009541115610fb9576040517f08c379a0000000000000000000000000000000000000000000000000000000008152600401610fb09061397a565b60405180910390fd5b600060086000888152602001908152602001600020541115611158576000600760008881526020019081526020016000206001600860008a81526020019081526020016000205461100a919061399a565b8154811061101b5761101a61346e565b5b906000526020600020016040518060800160405290816000820160009054906101000a900467ffffffffffffffff1667ffffffffffffffff1667ffffffffffffffff1681526020016000820160089054906101000a90046fffffffffffffffffffffffffffffffff166fffffffffffffffffffffffffffffffff166fffffffffffffffffffffffffffffffff1681526020016000820160189054906101000a900460ff1660008111156110d1576110d0612969565b5b60008111156110e3576110e2612969565b5b81526020016000820160199054906101000a900460ff1660ff1660ff1681525050905082816000015167ffffffffffffffff1610611156576040517f08c379a000000000000000000000000000000000000000000000000000000000815260040161114d90613a1a565b60405180910390fd5b505b600060405180608001604052808467ffffffffffffffff168152602001856fffffffffffffffffffffffffffffffff1681526020018760008111156111a05761119f612969565b5b81526020018360ff1681525090506008600088815260200190815260200160002060008154809291906111d2906134cc565b919050555060076000888152602001908152602001600020819080600181540180825580915050600190039060005260206000200160009091909190915060008201518160000160006101000a81548167ffffffffffffffff021916908367ffffffffffffffff16021790555060208201518160000160086101000a8154816fffffffffffffffffffffffffffffffff02191690836fffffffffffffffffffffffffffffffff16021790555060408201518160000160186101000a81548160ff021916908360008111156112a9576112a8612969565b5b021790555060608201518160000160196101000a81548160ff021916908360ff16021790555050507f4723f66da10e7e69286c0f95ac83c70458954eb7cccedd42c469a59e9158f711816040516113009190613abc565b60405180910390a150505050505050565b61131e8160000133611c64565b600060066000836060013581526020019081526020016000206000836000016020013581526020019081526020016000206040518060800160405290816000820160009054906101000a90046fffffffffffffffffffffffffffffffff166fffffffffffffffffffffffffffffffff166fffffffffffffffffffffffffffffffff1681526020016000820160109054906101000a900460801b6fffffffffffffffffffffffffffffffff19166fffffffffffffffffffffffffffffffff191681526020016001820160009054906101000a90046fffffffffffffffffffffffffffffffff166fffffffffffffffffffffffffffffffff166fffffffffffffffffffffffffffffffff1681526020016001820160109054906101000a90046fffffffffffffffffffffffffffffffff166fffffffffffffffffffffffffffffffff166fffffffffffffffffffffffffffffffff16815250509050611491818380360381019061148c9190613bb3565b611e5a565b604051806080016040528083600001600001356fffffffffffffffffffffffffffffffff16815260200183606001356fffffffffffffffffffffffffffffffff1916815260200183608001356fffffffffffffffffffffffffffffffff1681526020018360a001356fffffffffffffffffffffffffffffffff16815250600660008460600135815260200190815260200160002060008460000160200135815260200190815260200160002060008201518160000160006101000a8154816fffffffffffffffffffffffffffffffff02191690836fffffffffffffffffffffffffffffffff16021790555060208201518160000160106101000a8154816fffffffffffffffffffffffffffffffff021916908360801c021790555060408201518160010160006101000a8154816fffffffffffffffffffffffffffffffff02191690836fffffffffffffffffffffffffffffffff16021790555060608201518160010160106101000a8154816fffffffffffffffffffffffffffffffff02191690836fffffffffffffffffffffffffffffffff1602179055509050507f32de40418bb131efbfc7483cfdcaf13ccf812499655f8f35137b463c96fe32538260405161165c9190613ce0565b60405180910390a15050565b60008060029054906101000a900473ffffffffffffffffffffffffffffffffffffffff16905081600060026101000a81548173ffffffffffffffffffffffffffffffffffffffff021916908373ffffffffffffffffffffffffffffffffffffffff1602179055508173ffffffffffffffffffffffffffffffffffffffff168173ffffffffffffffffffffffffffffffffffffffff167f8be0079c531659141344cd1fd0a4f28419497f9722a3daafe3b4186f6b6457e060405160405180910390a35050565b6000808273ffffffffffffffffffffffffffffffffffffffff163b119050919050565b600080825167ffffffffffffffff81111561176e5761176d6122f7565b5b60405190808252806020026020018201604052801561179c5781602001602082028036833780820191505090505b5090506000805b84518110156118575760008582815181106117c1576117c061346e565b5b6020026020010151604001516fffffffffffffffffffffffffffffffff1614611844578481815181106117f7576117f661346e565b5b6020026020010151604001516fffffffffffffffffffffffffffffffff168382815181106118285761182761346e565b5b6020026020010181815250506001826118419190613cfb565b91505b808061184f906134cc565b9150506117a3565b506118628282611fd3565b92505050919050565b600080600260008481526020019081526020016000206002015490506001600082815260200190815260200160002060010154915050919050565b6060600080835167ffffffffffffffff8111156118c6576118c56122f7565b5b6040519080825280602002602001820160405280156118ff57816020015b6118ec61220b565b8152602001906001900390816118e45790505b50905060005b8451811015611acb5760006006600088815260200190815260200160002060008784815181106119385761193761346e565b5b602002602001015181526020019081526020016000206040518060800160405290816000820160009054906101000a90046fffffffffffffffffffffffffffffffff166fffffffffffffffffffffffffffffffff166fffffffffffffffffffffffffffffffff1681526020016000820160109054906101000a900460801b6fffffffffffffffffffffffffffffffff19166fffffffffffffffffffffffffffffffff191681526020016001820160009054906101000a90046fffffffffffffffffffffffffffffffff166fffffffffffffffffffffffffffffffff166fffffffffffffffffffffffffffffffff1681526020016001820160109054906101000a90046fffffffffffffffffffffffffffffffff166fffffffffffffffffffffffffffffffff166fffffffffffffffffffffffffffffffff16815250509050611a9681600001516fffffffffffffffffffffffffffffffff168561208c565b935080838381518110611aac57611aab61346e565b5b6020026020010181905250508080611ac3906134cc565b915050611905565b50809250509250929050565b60606000805b8451811015611b59576000858281518110611afb57611afa61346e565b5b6020026020010151905084610e1082600001516fffffffffffffffffffffffffffffffff16611b2a9190613cfb565b1015611b365750611b46565b8280611b41906134cc565b935050505b8080611b51906134cc565b915050611add565b5060008167ffffffffffffffff811115611b7657611b756122f7565b5b604051908082528060200260200182016040528015611baf57816020015b611b9c61220b565b815260200190600190039081611b945790505b5090506000805b8651811015611c4f576000878281518110611bd457611bd361346e565b5b6020026020010151905086610e1082600001516fffffffffffffffffffffffffffffffff16611c039190613cfb565b1015611c0f5750611c3c565b80848480611c1c906134cc565b955081518110611c2f57611c2e61346e565b5b6020026020010181905250505b8080611c47906134cc565b915050611bb6565b5081935050505092915050565b600033905090565b8073ffffffffffffffffffffffffffffffffffffffff16600460009054906101000a900473ffffffffffffffffffffffffffffffffffffffff1673ffffffffffffffffffffffffffffffffffffffff1663d0d4a72e84604001356040518263ffffffff1660e01b8152600401611cda91906130e4565b602060405180830381865afa158015611cf7573d6000803e3d6000fd5b505050506040513d601f19601f82011682018060405250810190611d1b9190613d44565b73ffffffffffffffffffffffffffffffffffffffff1614611d71576040517f08c379a0000000000000000000000000000000000000000000000000000000008152600401611d6890613dbd565b60405180910390fd5b600460009054906101000a900473ffffffffffffffffffffffffffffffffffffffff1673ffffffffffffffffffffffffffffffffffffffff166308ef1a8e836040013584602001356040518363ffffffff1660e01b8152600401611dd6929190613ddd565b602060405180830381865afa158015611df3573d6000803e3d6000fd5b505050506040513d601f19601f82011682018060405250810190611e179190613e1b565b611e56576040517f08c379a0000000000000000000000000000000000000000000000000000000008152600401611e4d90613e94565b60405180910390fd5b5050565b80600001516000015182600001516fffffffffffffffffffffffffffffffff1610611eba576040517f08c379a0000000000000000000000000000000000000000000000000000000008152600401611eb190613f26565b60405180910390fd5b806000015160000151610e1042611ed1919061399a565b1115611f12576040517f08c379a0000000000000000000000000000000000000000000000000000000008152600401611f0990613fb8565b60405180910390fd5b80600001516000015161038442611f299190613cfb565b1015611f6a576040517f08c379a0000000000000000000000000000000000000000000000000000000008152600401611f619061404a565b60405180910390fd5b600082600001516fffffffffffffffffffffffffffffffff1603611fcf57600560008260200151815260200190815260200160002081600001516020015190806001815401808255809150506001900390600052602060002001600090919091909150555b5050565b6000611fe1836000846120a5565b6000600283611ff09190614099565b14612021578260028361200391906140ca565b815181106120145761201361346e565b5b6020026020010151612084565b61208383600160028561203491906140ca565b61203e919061399a565b8151811061204f5761204e61346e565b5b60200260200101518460028561206591906140ca565b815181106120765761207561346e565b5b602002602001015161216c565b5b905092915050565b600081831161209b578161209d565b825b905092915050565b8082101561216757600082905060008482815181106120c7576120c661346e565b5b6020026020010151905060006001856120e09190613cfb565b90505b8381101561213657818682815181106120ff576120fe61346e565b5b602002602001015110156121255761212486828561211c906134cc565b955085612192565b5b8061212f906134cc565b90506120e3565b50612142858584612192565b61214d8585846120a5565b6121648560018461215e9190613cfb565b856120a5565b50505b505050565b6000600282841861217d91906140ca565b82841661218a9190613cfb565b905092915050565b8281815181106121a5576121a461346e565b5b60200260200101518383815181106121c0576121bf61346e565b5b60200260200101518484815181106121db576121da61346e565b5b602002602001018584815181106121f5576121f461346e565b5b6020026020010182815250828152505050505050565b604051806080016040528060006fffffffffffffffffffffffffffffffff16815260200160006fffffffffffffffffffffffffffffffff1916815260200160006fffffffffffffffffffffffffffffffff16815260200160006fffffffffffffffffffffffffffffffff1681525090565b6000604051905090565b600080fd5b600080fd5b600080fd5b6000608082840312156122ab576122aa612290565b5b81905092915050565b6000608082840312156122ca576122c9612286565b5b60006122d884828501612295565b91505092915050565b600080fd5b6000601f19601f8301169050919050565b7f4e487b7100000000000000000000000000000000000000000000000000000000600052604160045260246000fd5b61232f826122e6565b810181811067ffffffffffffffff8211171561234e5761234d6122f7565b5b80604052505050565b600061236161227c565b905061236d8282612326565b919050565b600067ffffffffffffffff82111561238d5761238c6122f7565b5b602082029050602081019050919050565b600080fd5b6000819050919050565b6123b6816123a3565b81146123c157600080fd5b50565b6000813590506123d3816123ad565b92915050565b60006123ec6123e784612372565b612357565b9050808382526020820190506020840283018581111561240f5761240e61239e565b5b835b81811015612438578061242488826123c4565b845260208401935050602081019050612411565b5050509392505050565b600082601f830112612457576124566122e1565b5b81356124678482602086016123d9565b91505092915050565b6001811061247d57600080fd5b50565b60008135905061248f81612470565b92915050565b600080604083850312156124ac576124ab612286565b5b600083013567ffffffffffffffff8111156124ca576124c961228b565b5b6124d685828601612442565b92505060206124e785828601612480565b9150509250929050565b6000819050919050565b612504816124f1565b811461250f57600080fd5b50565b600081359050612521816124fb565b92915050565b60006020828403121561253d5761253c612286565b5b600061254b84828501612512565b91505092915050565b600073ffffffffffffffffffffffffffffffffffffffff82169050919050565b6000819050919050565b600061259961259461258f84612554565b612574565b612554565b9050919050565b60006125ab8261257e565b9050919050565b60006125bd826125a0565b9050919050565b6125cd816125b2565b82525050565b60006020820190506125e860008301846125c4565b92915050565b6000806040838503121561260557612604612286565b5b6000612613858286016123c4565b9250506020612624858286016123c4565b9150509250929050565b60006fffffffffffffffffffffffffffffffff82169050919050565b6126538161262e565b82525050565b60007fffffffffffffffffffffffffffffffff0000000000000000000000000000000082169050919050565b61268e81612659565b82525050565b60006080820190506126a9600083018761264a565b6126b66020830186612685565b6126c3604083018561264a565b6126d0606083018461264a565b95945050505050565b6000602082840312156126ef576126ee612286565b5b60006126fd848285016123c4565b91505092915050565b61270f816123a3565b82525050565b61271e816124f1565b82525050565b60008115159050919050565b61273981612724565b82525050565b600061274a82612554565b9050919050565b61275a8161273f565b82525050565b60006080820190506127756000830187612706565b6127826020830186612715565b61278f6040830185612730565b61279c6060830184612751565b95945050505050565b600080fd5b60008083601f8401126127c0576127bf6122e1565b5b8235905067ffffffffffffffff8111156127dd576127dc6127a5565b5b6020830191508360c08202830111156127f9576127f861239e565b5b9250929050565b6000806020838503121561281757612816612286565b5b600083013567ffffffffffffffff8111156128355761283461228b565b5b612841858286016127aa565b92509250509250929050565b60006060828403121561286357612862612290565b5b81905092915050565b60006060828403121561288257612881612286565b5b60006128908482850161284d565b91505092915050565b60006060820190506128ae6000830186612706565b6128bb6020830185612706565b6128c86040830184612706565b949350505050565b60006020820190506128e56000830184612715565b92915050565b60006020820190506129006000830184612751565b92915050565b6000806040838503121561291d5761291c612286565b5b600061292b858286016123c4565b925050602061293c85828601612512565b9150509250929050565b600067ffffffffffffffff82169050919050565b61296381612946565b82525050565b7f4e487b7100000000000000000000000000000000000000000000000000000000600052602160045260246000fd5b600181106129a9576129a8612969565b5b50565b60008190506129ba82612998565b919050565b60006129ca826129ac565b9050919050565b6129da816129bf565b82525050565b600060ff82169050919050565b6129f6816129e0565b82525050565b6000608082019050612a11600083018761295a565b612a1e602083018661264a565b612a2b60408301856129d1565b612a3860608301846129ed565b95945050505050565b612a4a8161273f565b8114612a5557600080fd5b50565b600081359050612a6781612a41565b92915050565b600067ffffffffffffffff821115612a8857612a876122f7565b5b602082029050602081019050919050565b600080fd5b612aa781612724565b8114612ab257600080fd5b50565b600081359050612ac481612a9e565b92915050565b600060808284031215612ae057612adf612a99565b5b612aea6080612357565b90506000612afa848285016123c4565b6000830152506020612b0e84828501612512565b6020830152506040612b2284828501612ab5565b6040830152506060612b3684828501612a58565b60608301525092915050565b6000612b55612b5084612a6d565b612357565b90508083825260208201905060808402830185811115612b7857612b7761239e565b5b835b81811015612ba15780612b8d8882612aca565b845260208401935050608081019050612b7a565b5050509392505050565b600082601f830112612bc057612bbf6122e1565b5b8135612bd0848260208601612b42565b91505092915050565b600067ffffffffffffffff821115612bf457612bf36122f7565b5b602082029050602081019050919050565b600060608284031215612c1b57612c1a612a99565b5b612c256060612357565b90506000612c35848285016123c4565b6000830152506020612c49848285016123c4565b6020830152506040612c5d848285016123c4565b60408301525092915050565b6000612c7c612c7784612bd9565b612357565b90508083825260208201905060608402830185811115612c9f57612c9e61239e565b5b835b81811015612cc85780612cb48882612c05565b845260208401935050606081019050612ca1565b5050509392505050565b600082601f830112612ce757612ce66122e1565b5b8135612cf7848260208601612c69565b91505092915050565b600080600060608486031215612d1957612d18612286565b5b6000612d2786828701612a58565b935050602084013567ffffffffffffffff811115612d4857612d4761228b565b5b612d5486828701612bab565b925050604084013567ffffffffffffffff811115612d7557612d7461228b565b5b612d8186828701612cd2565b9150509250925092565b600080600060608486031215612da457612da3612286565b5b6000612db2868287016123c4565b9350506020612dc386828701612480565b925050604084013567ffffffffffffffff811115612de457612de361228b565b5b612df086828701612442565b9150509250925092565b6000608082019050612e0f6000830187612715565b612e1c6020830186612715565b612e296040830185612715565b612e366060830184612715565b95945050505050565b600060c08284031215612e5557612e54612290565b5b81905092915050565b600060c08284031215612e7457612e73612286565b5b6000612e8284828501612e3f565b91505092915050565b60008060408385031215612ea257612ea1612286565b5b6000612eb0858286016123c4565b925050602083013567ffffffffffffffff811115612ed157612ed061228b565b5b612edd85828601612442565b9150509250929050565b600081519050919050565b600082825260208201905092915050565b6000819050602082019050919050565b612f1c8161262e565b82525050565b612f2b81612659565b82525050565b608082016000820151612f476000850182612f13565b506020820151612f5a6020850182612f22565b506040820151612f6d6040850182612f13565b506060820151612f806060850182612f13565b50505050565b6000612f928383612f31565b60808301905092915050565b6000602082019050919050565b6000612fb682612ee7565b612fc08185612ef2565b9350612fcb83612f03565b8060005b83811015612ffc578151612fe38882612f86565b9750612fee83612f9e565b925050600181019050612fcf565b5085935050505092915050565b600060408201905081810360008301526130238185612fab565b90506130326020830184612715565b9392505050565b600080604083850312156130505761304f612286565b5b600061305e858286016123c4565b925050602061306f85828601612480565b9150509250929050565b60006130848261273f565b9050919050565b61309481613079565b811461309f57600080fd5b50565b6000813590506130b18161308b565b92915050565b6000602082840312156130cd576130cc612286565b5b60006130db848285016130a2565b91505092915050565b60006020820190506130f96000830184612706565b92915050565b60006020828403121561311557613114612286565b5b600061312384828501612a58565b91505092915050565b600082825260208201905092915050565b7f43757272656e637920616c726561647920736574000000000000000000000000600082015250565b600061317360148361312c565b915061317e8261313d565b602082019050919050565b600060208201905081810360008301526131a281613166565b9050919050565b600081356131b6816123ad565b80915050919050565b60008160001b9050919050565b60007fffffffffffffffffffffffffffffffffffffffffffffffffffffffffffffffff6131f8846131bf565b9350801983169250808416831791505092915050565b6000613219826123a3565b9050919050565b60008160001c9050919050565b600061323882613220565b9050919050565b6132488261320e565b61325b6132548261322d565b83546131cc565b8255505050565b6000813561326f816124fb565b80915050919050565b600061329361328e613289846124f1565b612574565b6124f1565b9050919050565b6000819050919050565b6132ad82613278565b6132c06132b98261329a565b83546131cc565b8255505050565b600081356132d481612a9e565b80915050919050565b600060ff6132ea846131bf565b9350801983169250808416831791505092915050565b600061330b82612724565b9050919050565b6000819050919050565b61332582613300565b61333861333182613312565b83546132dd565b8255505050565b6000813561334c81612a41565b80915050919050565b60008160081b9050919050565b600074ffffffffffffffffffffffffffffffffffffffff0061338384613355565b9350801983169250808416831791505092915050565b60006133a4826125a0565b9050919050565b6000819050919050565b6133be82613399565b6133d16133ca826133ab565b8354613362565b8255505050565b6000810160008301806133ea816131a9565b90506133f6818461323f565b50505060018101602083018061340b81613262565b905061341781846132a4565b50505060028101604083018061342c816132c7565b9050613438818461331c565b50505060028101606083018061344d8161333f565b905061345981846133b5565b5050505050565b61346a82826133d8565b5050565b7f4e487b7100000000000000000000000000000000000000000000000000000000600052603260045260246000fd5b7f4e487b7100000000000000000000000000000000000000000000000000000000600052601160045260246000fd5b60006134d7826124f1565b91507fffffffffffffffffffffffffffffffffffffffffffffffffffffffffffffffff82036135095761350861349d565b5b600182019050919050565b7f4f7261636c653a205061697220776974682074686973206b657920616c72656160008201527f6479207265676973746572656400000000000000000000000000000000000000602082015250565b6000613570602d8361312c565b915061357b82613514565b604082019050919050565b6000602082019050818103600083015261359f81613563565b9050919050565b6000810160008301806135b8816131a9565b90506135c4818461323f565b5050506001810160208301806135d9816131a9565b90506135e5818461323f565b5050506002810160408301806135fa816131a9565b9050613606818461323f565b5050505050565b61361782826135a6565b5050565b600061362a60208401846123c4565b905092915050565b61363b816123a3565b82525050565b60608201613652600083018361361b565b61365f6000850182613632565b5061366d602083018361361b565b61367a6020850182613632565b50613688604083018361361b565b6136956040850182613632565b50505050565b60006060820190506136b06000830184613641565b92915050565b7f496e697469616c697a61626c653a20636f6e747261637420697320616c72656160008201527f647920696e697469616c697a6564000000000000000000000000000000000000602082015250565b6000613712602e8361312c565b915061371d826136b6565b604082019050919050565b6000602082019050818103600083015261374181613705565b9050919050565b6000819050919050565b600061376d61376861376384613748565b612574565b6129e0565b9050919050565b61377d81613752565b82525050565b60006020820190506137986000830184613774565b92915050565b7f43757272656e6379206e6f742073657400000000000000000000000000000000600082015250565b60006137d460108361312c565b91506137df8261379e565b602082019050919050565b60006020820190508181036000830152613803816137c7565b9050919050565b7f4f776e61626c653a206e6577206f776e657220697320746865207a65726f206160008201527f6464726573730000000000000000000000000000000000000000000000000000602082015250565b600061386660268361312c565b91506138718261380a565b604082019050919050565b6000602082019050818103600083015261389581613859565b9050919050565b7f4f776e61626c653a2063616c6c6572206973206e6f7420746865206f776e6572600082015250565b60006138d260208361312c565b91506138dd8261389c565b602082019050919050565b60006020820190508181036000830152613901816138c5565b9050919050565b7f446f6573206e6f74206d656574207468726573686f6c6420666f72206167677260008201527f6561676174656420736f75726365730000000000000000000000000000000000602082015250565b6000613964602f8361312c565b915061396f82613908565b604082019050919050565b6000602082019050818103600083015261399381613957565b9050919050565b60006139a5826124f1565b91506139b0836124f1565b92508282039050818111156139c8576139c761349d565b5b92915050565b7f7374616c65000000000000000000000000000000000000000000000000000000600082015250565b6000613a0460058361312c565b9150613a0f826139ce565b602082019050919050565b60006020820190508181036000830152613a33816139f7565b9050919050565b613a4381612946565b82525050565b613a52816129bf565b82525050565b613a61816129e0565b82525050565b608082016000820151613a7d6000850182613a3a565b506020820151613a906020850182612f13565b506040820151613aa36040850182613a49565b506060820151613ab66060850182613a58565b50505050565b6000608082019050613ad16000830184613a67565b92915050565b600060608284031215613aed57613aec612a99565b5b613af76060612357565b90506000613b0784828501612512565b6000830152506020613b1b848285016123c4565b6020830152506040613b2f848285016123c4565b60408301525092915050565b600060c08284031215613b5157613b50612a99565b5b613b5b6080612357565b90506000613b6b84828501613ad7565b6000830152506060613b7f848285016123c4565b6020830152506080613b9384828501612512565b60408301525060a0613ba784828501612512565b60608301525092915050565b600060c08284031215613bc957613bc8612286565b5b6000613bd784828501613b3b565b91505092915050565b600082905092915050565b6000613bfa6020840184612512565b905092915050565b613c0b816124f1565b82525050565b60608201613c226000830183613beb565b613c2f6000850182613c02565b50613c3d602083018361361b565b613c4a6020850182613632565b50613c58604083018361361b565b613c656040850182613632565b50505050565b60c08201613c7c6000830183613be0565b613c896000850182613c11565b50613c97606083018361361b565b613ca46060850182613632565b50613cb26080830183613beb565b613cbf6080850182613c02565b50613ccd60a0830183613beb565b613cda60a0850182613c02565b50505050565b600060c082019050613cf56000830184613c6b565b92915050565b6000613d06826124f1565b9150613d11836124f1565b9250828201905080821115613d2957613d2861349d565b5b92915050565b600081519050613d3e81612a41565b92915050565b600060208284031215613d5a57613d59612286565b5b6000613d6884828501613d2f565b91505092915050565b7f496e76616c69642053656e64657220666f72205075626c697368657200000000600082015250565b6000613da7601c8361312c565b9150613db282613d71565b602082019050919050565b60006020820190508181036000830152613dd681613d9a565b9050919050565b6000604082019050613df26000830185612706565b613dff6020830184612706565b9392505050565b600081519050613e1581612a9e565b92915050565b600060208284031215613e3157613e30612286565b5b6000613e3f84828501613e06565b91505092915050565b7f43616e206e6f74207075626c69736820536f7572636500000000000000000000600082015250565b6000613e7e60168361312c565b9150613e8982613e48565b602082019050919050565b60006020820190508181036000830152613ead81613e71565b9050919050565b7f4f7261636c653a204578697374696e6720656e747279206973206d6f7265207260008201527f6563656e74000000000000000000000000000000000000000000000000000000602082015250565b6000613f1060258361312c565b9150613f1b82613eb4565b604082019050919050565b60006020820190508181036000830152613f3f81613f03565b9050919050565b7f4f7261636c653a204e657720656e7472792074696d657374616d70206973207460008201527f6f6f2066617220696e2074686520706173740000000000000000000000000000602082015250565b6000613fa260328361312c565b9150613fad82613f46565b604082019050919050565b60006020820190508181036000830152613fd181613f95565b9050919050565b7f4f7261636c653a204e657720656e7472792074696d657374616d70206973207460008201527f6f6f2066617220696e2074686520667574757265000000000000000000000000602082015250565b600061403460348361312c565b915061403f82613fd8565b604082019050919050565b6000602082019050818103600083015261406381614027565b9050919050565b7f4e487b7100000000000000000000000000000000000000000000000000000000600052601260045260246000fd5b60006140a4826124f1565b91506140af836124f1565b9250826140bf576140be61406a565b5b828206905092915050565b60006140d5826124f1565b91506140e0836124f1565b9250826140f0576140ef61406a565b5b82820490509291505056fea264697066735822122029be3fb062a1a290c05abe6c3e4332a87592b8a16c8752c0996d5f515867630564736f6c63430008110033",
  "linkReferences": {},
  "deployedLinkReferences": {}
}