{
  "_format": "hh-sol-artifact-1",
  "contractName": "PublisherRegistry",
  "sourceName": "contracts/PublisherRegistry.sol",
  "abi": [
    {
      "anonymous": false,
      "inputs": [
        {
          "indexed": true,
          "internalType": "address",
          "name": "previousOwner",
          "type": "address"
        },
        {
          "indexed": true,
          "internalType": "address",
          "name": "newOwner",
          "type": "address"
        }
      ],
      "name": "OwnershipTransferred",
      "type": "event"
    },
    {
      "anonymous": false,
      "inputs": [
        {
          "indexed": false,
          "internalType": "bytes32",
          "name": "publisher",
          "type": "bytes32"
        },
        {
          "indexed": false,
          "internalType": "address",
          "name": "publisherAddress",
          "type": "address"
        }
      ],
      "name": "RegisteredPublisher",
      "type": "event"
    },
    {
      "anonymous": false,
      "inputs": [
        {
          "indexed": false,
          "internalType": "bytes32",
          "name": "publisher",
          "type": "bytes32"
        },
        {
          "indexed": false,
          "internalType": "address",
          "name": "oldPublisherAddress",
          "type": "address"
        },
        {
          "indexed": false,
          "internalType": "address",
          "name": "newPublisherAddress",
          "type": "address"
        }
      ],
      "name": "UpdatedPublisherAddress",
      "type": "event"
    },
    {
      "inputs": [
        {
          "internalType": "bytes32",
          "name": "publisher",
          "type": "bytes32"
        },
        {
          "internalType": "address",
          "name": "publisherAddress",
          "type": "address"
        }
      ],
      "name": "addPublisher",
      "outputs": [],
      "stateMutability": "nonpayable",
      "type": "function"
    },
    {
      "inputs": [
        {
          "internalType": "bytes32",
          "name": "publisher",
          "type": "bytes32"
        },
        {
          "internalType": "bytes32",
          "name": "source",
          "type": "bytes32"
        }
      ],
      "name": "addSourceForPublisher",
      "outputs": [],
      "stateMutability": "nonpayable",
      "type": "function"
    },
    {
      "inputs": [
        {
          "internalType": "bytes32",
          "name": "publisher",
          "type": "bytes32"
        },
        {
          "internalType": "bytes32[]",
          "name": "sources_",
          "type": "bytes32[]"
        }
      ],
      "name": "addSourcesForPublisher",
      "outputs": [],
      "stateMutability": "nonpayable",
      "type": "function"
    },
    {
      "inputs": [
        {
          "internalType": "bytes32",
          "name": "publisher",
          "type": "bytes32"
        },
        {
          "internalType": "bytes32",
          "name": "source",
          "type": "bytes32"
        }
      ],
      "name": "canPublishSource",
      "outputs": [
        {
          "internalType": "bool",
          "name": "",
          "type": "bool"
        }
      ],
      "stateMutability": "view",
      "type": "function"
    },
    {
      "inputs": [],
      "name": "owner",
      "outputs": [
        {
          "internalType": "address",
          "name": "",
          "type": "address"
        }
      ],
      "stateMutability": "view",
      "type": "function"
    },
    {
      "inputs": [
        {
          "internalType": "bytes32",
          "name": "",
          "type": "bytes32"
        }
      ],
      "name": "publisherAddresses",
      "outputs": [
        {
          "internalType": "address",
          "name": "",
          "type": "address"
        }
      ],
      "stateMutability": "view",
      "type": "function"
    },
    {
      "inputs": [
        {
          "internalType": "bytes32",
          "name": "",
          "type": "bytes32"
        },
        {
          "internalType": "bytes32",
          "name": "",
          "type": "bytes32"
        }
      ],
      "name": "publisherSources",
      "outputs": [
        {
          "internalType": "bool",
          "name": "",
          "type": "bool"
        }
      ],
      "stateMutability": "view",
      "type": "function"
    },
    {
      "inputs": [],
      "name": "publisherStorageLen",
      "outputs": [
        {
          "internalType": "uint256",
          "name": "",
          "type": "uint256"
        }
      ],
      "stateMutability": "view",
      "type": "function"
    },
    {
      "inputs": [
        {
          "internalType": "uint256",
          "name": "",
          "type": "uint256"
        }
      ],
      "name": "publishers",
      "outputs": [
        {
          "internalType": "bytes32",
          "name": "",
          "type": "bytes32"
        }
      ],
      "stateMutability": "view",
      "type": "function"
    },
    {
      "inputs": [
        {
          "internalType": "bytes32",
          "name": "publisher",
          "type": "bytes32"
        }
      ],
      "name": "removePublisher",
      "outputs": [],
      "stateMutability": "nonpayable",
      "type": "function"
    },
    {
      "inputs": [
        {
          "internalType": "bytes32",
          "name": "publisher",
          "type": "bytes32"
        },
        {
          "internalType": "bytes32",
          "name": "source",
          "type": "bytes32"
        }
      ],
      "name": "removeSourceForPublisher",
      "outputs": [],
      "stateMutability": "nonpayable",
      "type": "function"
    },
    {
      "inputs": [],
      "name": "renounceOwnership",
      "outputs": [],
      "stateMutability": "nonpayable",
      "type": "function"
    },
    {
      "inputs": [
        {
          "internalType": "bytes32",
          "name": "",
          "type": "bytes32"
        }
      ],
      "name": "sourceExists",
      "outputs": [
        {
          "internalType": "bool",
          "name": "",
          "type": "bool"
        }
      ],
      "stateMutability": "view",
      "type": "function"
    },
    {
      "inputs": [
        {
          "internalType": "uint256",
          "name": "",
          "type": "uint256"
        }
      ],
      "name": "sources",
      "outputs": [
        {
          "internalType": "bytes32",
          "name": "",
          "type": "bytes32"
        }
      ],
      "stateMutability": "view",
      "type": "function"
    },
    {
      "inputs": [
        {
          "internalType": "bytes32",
          "name": "",
          "type": "bytes32"
        },
        {
          "internalType": "uint256",
          "name": "",
          "type": "uint256"
        }
      ],
      "name": "sourcesForPublisher",
      "outputs": [
        {
          "internalType": "bytes32",
          "name": "",
          "type": "bytes32"
        }
      ],
      "stateMutability": "view",
      "type": "function"
    },
    {
      "inputs": [
        {
          "internalType": "address",
          "name": "newOwner",
          "type": "address"
        }
      ],
      "name": "transferOwnership",
      "outputs": [],
      "stateMutability": "nonpayable",
      "type": "function"
    },
    {
      "inputs": [
        {
          "internalType": "bytes32",
          "name": "publisher",
          "type": "bytes32"
        },
        {
          "internalType": "address",
          "name": "newPublisherAddress",
          "type": "address"
        }
      ],
      "name": "updatePublisherAddress",
      "outputs": [],
      "stateMutability": "nonpayable",
      "type": "function"
    }
  ],
  "bytecode": "0x608060405234801561001057600080fd5b5061002d61002261003260201b60201c565b61003a60201b60201c565b6100fe565b600033905090565b60008060009054906101000a900473ffffffffffffffffffffffffffffffffffffffff169050816000806101000a81548173ffffffffffffffffffffffffffffffffffffffff021916908373ffffffffffffffffffffffffffffffffffffffff1602179055508173ffffffffffffffffffffffffffffffffffffffff168173ffffffffffffffffffffffffffffffffffffffff167f8be0079c531659141344cd1fd0a4f28419497f9722a3daafe3b4186f6b6457e060405160405180910390a35050565b6116458061010d6000396000f3fe608060405234801561001057600080fd5b506004361061010b5760003560e01c8063a3663d37116100a2578063d0d4a72e11610071578063d0d4a72e146102a2578063d13c8f23146102d2578063f2fde38b146102ee578063fc2c1d381461030a578063ff060fbd1461033a5761010b565b8063a3663d371461020a578063c528db261461023a578063c6f17ade1461026a578063cc8e4f70146102865761010b565b806347c1998c116100de57806347c1998c14610196578063715018a6146101c6578063808ba8eb146101d05780638da5cb5b146101ec5761010b565b8063057d9fac1461011057806308ef1a8e1461012e57806319780b461461015e5780631d4b9a651461017a575b600080fd5b61011861036a565b6040516101259190610e46565b60405180910390f35b61014860048036038101906101439190610ea1565b610370565b6040516101559190610efc565b60405180910390f35b61017860048036038101906101739190610f7c565b6103ac565b005b610194600480360381019061018f9190610ea1565b6103fe565b005b6101b060048036038101906101ab9190611008565b6104e9565b6040516101bd9190611057565b60405180910390f35b6101ce61051a565b005b6101ea60048036038101906101e59190610ea1565b61052e565b005b6101f46106a3565b60405161020191906110b3565b60405180910390f35b610224600480360381019061021f91906110ce565b6106cc565b6040516102319190611057565b60405180910390f35b610254600480360381019061024f91906110fb565b6106f0565b6040516102619190610efc565b60405180910390f35b610284600480360381019061027f9190611154565b610710565b005b6102a0600480360381019061029b9190611154565b61088a565b005b6102bc60048036038101906102b791906110fb565b6109f5565b6040516102c991906110b3565b60405180910390f35b6102ec60048036038101906102e791906110fb565b610a28565b005b61030860048036038101906103039190611194565b610bcf565b005b610324600480360381019061031f9190610ea1565b610c52565b6040516103319190610efc565b60405180910390f35b610354600480360381019061034f91906110ce565b610c81565b6040516103619190611057565b60405180910390f35b60075481565b600060026000848152602001908152602001600020600083815260200190815260200160002060009054906101000a900460ff16905092915050565b6103b4610ca5565b60005b828290508110156103f8576103e5848484848181106103d9576103d86111c1565b5b9050602002013561052e565b80806103f09061121f565b9150506103b7565b50505050565b610406610ca5565b60008060066000858152602001908152602001600020905060005b818054905081101561046c5783828281548110610441576104406111c1565b5b9060005260206000200154036104595780925061046c565b80806104649061121f565b915050610421565b50806001828054905061047f9190611267565b815481106104905761048f6111c1565b5b90600052602060002001548183815481106104ae576104ad6111c1565b5b9060005260206000200181905550808054806104cd576104cc61129b565b5b6001900381819060005260206000200160009055905550505050565b6006602052816000526040600020818154811061050557600080fd5b90600052602060002001600091509150505481565b610522610ca5565b61052c6000610d23565b565b610536610ca5565b60006001600084815260200190815260200160002060009054906101000a900473ffffffffffffffffffffffffffffffffffffffff169050600073ffffffffffffffffffffffffffffffffffffffff168173ffffffffffffffffffffffffffffffffffffffff16036105dd576040517f08c379a00000000000000000000000000000000000000000000000000000000081526004016105d490611327565b60405180910390fd5b6105e78383610370565b15610627576040517f08c379a000000000000000000000000000000000000000000000000000000000815260040161061e90611393565b60405180910390fd5b600160026000858152602001908152602001600020600084815260200190815260200160002060006101000a81548160ff02191690831515021790555060066000848152602001908152602001600020829080600181540180825580915050600190039060005260206000200160009091909190915055505050565b60008060009054906101000a900473ffffffffffffffffffffffffffffffffffffffff16905090565b600481815481106106dc57600080fd5b906000526020600020016000915090505481565b60056020528060005260406000206000915054906101000a900460ff1681565b610718610ca5565b600073ffffffffffffffffffffffffffffffffffffffff166001600084815260200190815260200160002060009054906101000a900473ffffffffffffffffffffffffffffffffffffffff1673ffffffffffffffffffffffffffffffffffffffff16146107ba576040517f08c379a00000000000000000000000000000000000000000000000000000000081526004016107b1906113ff565b60405180910390fd5b6003829080600181540180825580915050600190039060005260206000200160009091909190915055806001600084815260200190815260200160002060006101000a81548173ffffffffffffffffffffffffffffffffffffffff021916908373ffffffffffffffffffffffffffffffffffffffff160217905550600760008154809291906108489061121f565b91905055507f563a1fdc12536c671dc9a28707514f8b9b7036bae35b45190294904c540cf755828260405161087e92919061141f565b60405180910390a15050565b60006001600084815260200190815260200160002060009054906101000a900473ffffffffffffffffffffffffffffffffffffffff1690506001600084815260200190815260200160002060009054906101000a900473ffffffffffffffffffffffffffffffffffffffff1673ffffffffffffffffffffffffffffffffffffffff163373ffffffffffffffffffffffffffffffffffffffff1614610963576040517f08c379a000000000000000000000000000000000000000000000000000000000815260040161095a906114ba565b60405180910390fd5b816001600085815260200190815260200160002060006101000a81548173ffffffffffffffffffffffffffffffffffffffff021916908373ffffffffffffffffffffffffffffffffffffffff1602179055507fde800e734f3b98c6a73e78b649d1232b0da6ea8c01b060cd483bc1781c8992e78382846040516109e8939291906114da565b60405180910390a1505050565b60016020528060005260406000206000915054906101000a900473ffffffffffffffffffffffffffffffffffffffff1681565b610a30610ca5565b6001600082815260200190815260200160002060006101000a81549073ffffffffffffffffffffffffffffffffffffffff021916905560005b600480549050811015610adb5760026000838152602001908152602001600020600060048381548110610a9f57610a9e6111c1565b5b9060005260206000200154815260200190815260200160002060006101000a81549060ff02191690558080610ad39061121f565b915050610a69565b50600080600090505b600380549050811015610b31578260038281548110610b0657610b056111c1565b5b906000526020600020015403610b1e57809150610b31565b8080610b299061121f565b915050610ae4565b5060036001600380549050610b469190611267565b81548110610b5757610b566111c1565b5b906000526020600020015460038281548110610b7657610b756111c1565b5b90600052602060002001819055506003805480610b9657610b9561129b565b5b60019003818190600052602060002001600090559055600660008381526020019081526020016000206000610bcb9190610def565b5050565b610bd7610ca5565b600073ffffffffffffffffffffffffffffffffffffffff168173ffffffffffffffffffffffffffffffffffffffff1603610c46576040517f08c379a0000000000000000000000000000000000000000000000000000000008152600401610c3d90611583565b60405180910390fd5b610c4f81610d23565b50565b60026020528160005260406000206020528060005260406000206000915091509054906101000a900460ff1681565b60038181548110610c9157600080fd5b906000526020600020016000915090505481565b610cad610de7565b73ffffffffffffffffffffffffffffffffffffffff16610ccb6106a3565b73ffffffffffffffffffffffffffffffffffffffff1614610d21576040517f08c379a0000000000000000000000000000000000000000000000000000000008152600401610d18906115ef565b60405180910390fd5b565b60008060009054906101000a900473ffffffffffffffffffffffffffffffffffffffff169050816000806101000a81548173ffffffffffffffffffffffffffffffffffffffff021916908373ffffffffffffffffffffffffffffffffffffffff1602179055508173ffffffffffffffffffffffffffffffffffffffff168173ffffffffffffffffffffffffffffffffffffffff167f8be0079c531659141344cd1fd0a4f28419497f9722a3daafe3b4186f6b6457e060405160405180910390a35050565b600033905090565b5080546000825590600052602060002090810190610e0d9190610e10565b50565b5b80821115610e29576000816000905550600101610e11565b5090565b6000819050919050565b610e4081610e2d565b82525050565b6000602082019050610e5b6000830184610e37565b92915050565b600080fd5b600080fd5b6000819050919050565b610e7e81610e6b565b8114610e8957600080fd5b50565b600081359050610e9b81610e75565b92915050565b60008060408385031215610eb857610eb7610e61565b5b6000610ec685828601610e8c565b9250506020610ed785828601610e8c565b9150509250929050565b60008115159050919050565b610ef681610ee1565b82525050565b6000602082019050610f116000830184610eed565b92915050565b600080fd5b600080fd5b600080fd5b60008083601f840112610f3c57610f3b610f17565b5b8235905067ffffffffffffffff811115610f5957610f58610f1c565b5b602083019150836020820283011115610f7557610f74610f21565b5b9250929050565b600080600060408486031215610f9557610f94610e61565b5b6000610fa386828701610e8c565b935050602084013567ffffffffffffffff811115610fc457610fc3610e66565b5b610fd086828701610f26565b92509250509250925092565b610fe581610e2d565b8114610ff057600080fd5b50565b60008135905061100281610fdc565b92915050565b6000806040838503121561101f5761101e610e61565b5b600061102d85828601610e8c565b925050602061103e85828601610ff3565b9150509250929050565b61105181610e6b565b82525050565b600060208201905061106c6000830184611048565b92915050565b600073ffffffffffffffffffffffffffffffffffffffff82169050919050565b600061109d82611072565b9050919050565b6110ad81611092565b82525050565b60006020820190506110c860008301846110a4565b92915050565b6000602082840312156110e4576110e3610e61565b5b60006110f284828501610ff3565b91505092915050565b60006020828403121561111157611110610e61565b5b600061111f84828501610e8c565b91505092915050565b61113181611092565b811461113c57600080fd5b50565b60008135905061114e81611128565b92915050565b6000806040838503121561116b5761116a610e61565b5b600061117985828601610e8c565b925050602061118a8582860161113f565b9150509250929050565b6000602082840312156111aa576111a9610e61565b5b60006111b88482850161113f565b91505092915050565b7f4e487b7100000000000000000000000000000000000000000000000000000000600052603260045260246000fd5b7f4e487b7100000000000000000000000000000000000000000000000000000000600052601160045260246000fd5b600061122a82610e2d565b91507fffffffffffffffffffffffffffffffffffffffffffffffffffffffffffffffff820361125c5761125b6111f0565b5b600182019050919050565b600061127282610e2d565b915061127d83610e2d565b9250828203905081811115611295576112946111f0565b5b92915050565b7f4e487b7100000000000000000000000000000000000000000000000000000000600052603160045260246000fd5b600082825260208201905092915050565b7f5075626c697368657220646f6573206e6f742065786973740000000000000000600082015250565b60006113116018836112ca565b915061131c826112db565b602082019050919050565b6000602082019050818103600083015261134081611304565b9050919050565b7f416c726561647920526567697374657265640000000000000000000000000000600082015250565b600061137d6012836112ca565b915061138882611347565b602082019050919050565b600060208201905081810360008301526113ac81611370565b9050919050565b7f416c726561647920416464656400000000000000000000000000000000000000600082015250565b60006113e9600d836112ca565b91506113f4826113b3565b602082019050919050565b60006020820190508181036000830152611418816113dc565b9050919050565b60006040820190506114346000830185611048565b61144160208301846110a4565b9392505050565b7f4f6e6c79207075626c69736865722063616e206368616e67652074686569722060008201527f6164647265737300000000000000000000000000000000000000000000000000602082015250565b60006114a46027836112ca565b91506114af82611448565b604082019050919050565b600060208201905081810360008301526114d381611497565b9050919050565b60006060820190506114ef6000830186611048565b6114fc60208301856110a4565b61150960408301846110a4565b949350505050565b7f4f776e61626c653a206e6577206f776e657220697320746865207a65726f206160008201527f6464726573730000000000000000000000000000000000000000000000000000602082015250565b600061156d6026836112ca565b915061157882611511565b604082019050919050565b6000602082019050818103600083015261159c81611560565b9050919050565b7f4f776e61626c653a2063616c6c6572206973206e6f7420746865206f776e6572600082015250565b60006115d96020836112ca565b91506115e4826115a3565b602082019050919050565b60006020820190508181036000830152611608816115cc565b905091905056fea2646970667358221220c1fc4d82d47ccb154b6a0e2889340da57e5c79a27e9ace35c2afbedd98ba687f64736f6c63430008110033",
  "linkReferences": {},
  "deployedLinkReferences": {}
}